:020000040800F2
:1000000058050020010100087F200008D31E0008C9
:100010007D200008F90700084D26000800000000B8
:100020000000000000000000000000002521000882
:100030001509000800000000812000085521000873
:100040001B0100081B0100081B0100081B01000820
:100050001B0100081B0100081B0100081B01000810
:100060001B0100081B0100081B0100081B01000800
:100070001B0100081B0100081B0100081B010008F0
:100080001B0100081B0100081B0100081B010008E0
:100090001B0100081B0100081B0100081B010008D0
:1000A0001B0100081B0100081B0100081B010008C0
:1000B0001B0100081B0100081B0100081B010008B0
:1000C0001B0100081B0100081B0100081B010008A0
:1000D0001B01000835260008412600081B01000806
:1000E0001B0100081B0100081B010008DFF80CD0F1
:1000F00000F094FA00480047952F000858050020AA
:100100000648804706480047FEE7FEE7FEE7FEE7B1
:10011000FEE7FEE7FEE7FEE7FEE7FEE7B92100089F
:10012000ED000008202A04DB203A21FA02F0002129
:10013000704721FA02F3D040C2F1200291400843F7
:1001400019467047D2B201E000F8012B491EFBD2DC
:1001500070470022F6E710B513460A4604461946D2
:10016000FFF7F0FF204610BD420005D0C0F3C75294
:100170005242914201DC0020704700EBC1507047B1
:1001800096230022114600F063B800F0004230F0E0
:1001900000400AD0C10D01F56071C0F3160042EABB
:1001A0000151C208400711437047002001467047C3
:1001B00030B50B46014600202022012409E021FA37
:1001C00002F59D4205D303FA02F5491B04FA02F534
:1001D0002844151EA2F10102F1DC30BD2DE9F05FCB
:1001E0000546002092469B468846064681464024A6
:1001F0001BE02846414647462246FFF793FF5346F9
:100200005A46C01A914110D311461846224600F0B2
:1002100017FA2D1A67EB01084F46224601200021EC
:1002200000F00EFA17EB00094E41201EA4F1010464
:10023000DFDC484631462A464346BDE8F09F0029A8
:10024000A8BF7047401C490008BF20F0010070475C
:1002500010B4B0FA80FC00FA0CF050EA010404BFBC
:1002600010BC704749B1CCF1200421FA04F411FA12
:100270000CF118BF012121430843A3EB0C01CB1D56
:100280004FEA00614FEA102042BF002010BC7047C7
:1002900000EBC35010440029A4BF10BC7047401CA1
:1002A000490008BF20F0010010BC70472DE9FE4F47
:1002B000804681EA0300C00F0C46009021F0004107
:1002C00023F00045B8EB0200A94105D24046214683
:1002D00090461C460B46024623F00040104347D090
:1002E000270DC7F30A00C3F30A510290401A019088
:1002F00040286BDAC3F3130040F4801B0098924649
:1003000020B10023D2EB030A63EB0B0B0198594693
:10031000C0F14002504600F093F906460D465046A3
:100320005946019A00F09BF910EB08006141002446
:1003300087EA115284EAE7731A4340D0009A62B305
:10034000019A012A4FEA075215DC001B61EB0201FA
:100350004FF0004202EA0752CDE90042001C41F58D
:10036000801132462B4600F09BF903B0BDE8F08FB8
:1003700040462146F9E7001B61EB0201001C41F5F4
:10038000801300185B412018A2F5001747EB03010A
:1003900040EAD570B6196D4111E06D084FEA360696
:1003A00045EAC0754FEA0752001B61EB0201001CD1
:1003B00041F5801149084FEA300000195141324699
:1003C0002B4603B0BDE8F04F00F05BB90098012266
:1003D00040000023D0EB020263EBE073009821465B
:1003E0004FEAE074B8EB000061EB0401E9E783F049
:1003F00000435BE781F0004158E72DE9FE4F81EAB9
:10040000030404F0004421F0004100944FF0000B7D
:1004100023F0004350EA01045ED052EA03045BD0AB
:10042000C3F30A54C1F30A552C44A4F2F3340194E3
:10043000A0FB0254C1F3130141F48011C3F3130371
:1004400043F4801301FB024400FB034E840A970A25
:1004500044EA815447EA8357A4FB076802958D0A52
:1004600005FB07854FEA932C04FB0C542705029DDE
:100470004FEA065847EA1637B5EB08056EEB070C4E
:10048000870E920E47EA811742EA8312A7FB020108
:10049000B6EB0B0164EB00042B0D43EA0C335E1842
:1004A00044EB1C50DA465146E7FB0201C5F3130446
:1004B0004FEA0B3343EA14534FEA0432019C43EAF8
:1004C0000603A4F10C040294009CCDE900B400F0F2
:1004D000E7F803B0BDE8F08F00200146F9E72DE909
:1004E000F04D81EA030404F0004B21F0004514466E
:1004F0004FF0000A23F0004150EA050220D054EAF0
:1005000001021DD0C5F30A570246C5F31303C1F318
:100510001300C1F30A5640F4801543F48013A7EB8F
:100520000608101BD64608F2FD3873EB050002D30F
:1005300008F1010801E092185B41B8F1000F03DAFD
:1005400000200146BDE8F08D00204FF480110646E2
:1005500084460EE0171B73EB050705D3121B63EBF4
:10056000050306434CEA010C49084FEA3000921893
:100570005B4150EA0107EDD152EA030012D082EA52
:10058000040083EA0501084305D0101BAB4106D2E5
:100590000122002306E000224FF0004302E06FF04A
:1005A000010253101AEB06004CEB085110EB0A0045
:1005B00041EB0B01BDE8F04D00F063B8C1F30A5206
:1005C000C1F3130140F2FF3341F480119A4202DA81
:1005D00000200146704740F233439A42A2F2334270
:1005E00002DC5242FFF79EBD00F02AB830B5041E6F
:1005F00071F1000404DB4FF00044404264EB010160
:10060000141E73F1000405DB1C464FF000435242F8
:1006100063EB0403994208BF904230BD064C074D7E
:1006200006E0E06840F0010394E8070098471034C2
:10063000AC42F6D3FFF75EFDB4300008D4300008BA
:10064000202A04DB203A00FA02F100207047914092
:10065000C2F1200320FA03F3194390407047202A87
:1006600006DBCB17203A41FA02F043EAE07306E0DA
:1006700041FA02F3D040C2F12002914008431946EA
:10068000704710B5141E73F1000408DA401C41F1E4
:10069000000192185B411A4301D120F0010010BD06
:1006A0002DE9F04D92469B4611B1B1FA81F202E07C
:1006B000B0FA80F220329046FFF7C2FF04460F46A0
:1006C00040EA0A0041EA0B0153465A46084313D058
:1006D000114653EA010019D0C8F140025046FFF715
:1006E00021FD05460E46504659464246FFF7A8FFF3
:1006F000084305D0012004E020463946BDE8F08DCE
:100700000020054346EAE0762C4337430A98630508
:10071000E40AA0EB08000022FD0A44EA47540A302C
:1007200002D500200146E9E7010510196941DDE91C
:10073000084500196941BDE8F04DA2E770B50446CF
:1007400000688168C943C9071CD1816821F0010193
:10075000816000F087FC05460FE000BF00F082FCDE
:10076000401B022809D9A06A40F01000A062E06A8C
:1007700040F00100E062012070BD20688068C04345
:10078000C007EBD0002070BDF8B5002604460096E7
:1007900000688168C943C90728D0816841F0010118
:1007A0008160134813490068B0FBF1F000E0401E7F
:1007B00000900028FBD100F055FC054611E000BF79
:1007C00000F050FC401B02280BD9A06A40F010003A
:1007D000A062E06A40F00100E06284F82460012039
:1007E000F8BD20688068C043C007E9D10020F8BD8B
:1007F0002000002040420F00FEE700002DE9F041FC
:10080000144E00250221304601F08DFC0024012702
:100810000221304601F092FC00220221304600F015
:100820001CFC012002F09EFB0221304601F07BFC03
:100830000221304600F00CFC18B107FA04F02843FE
:10084000C5B2322002F08EFB641C082CE0DB284687
:10085000BDE8F0810008014010B5114C022120468E
:1008600001F06CFC00220221204600F0F6FB4FF460
:10087000F07002F077FB0221204601F054FC50207A
:1008800002F070FB0221204600F0E2FB30B1FF24B1
:100890004FF4C87002F066FB204610BD0124F7E754
:1008A000000801402DE9F041194D07460221284674
:1008B00001F044FC0024012606FA04F038424FF00F
:1008C0000201284611D001F039FC002202212846FD
:1008D00000F0C3FB012002F045FB0221284601F095
:1008E00022FC322002F03EFB0DE001F027FC00224A
:1008F0000221284600F0B1FB322002F033FB022136
:10090000284601F010FC641C082CD5DBBDE8F08102
:100910000008014070470000F8B50024009490F8EA
:1009200024202546012A12D0012280F824204A687A
:100930001F23072A0DD20668776B521E02EB820234
:1009400093409F430B6893401F43776319E0022055
:10095000F8BD06680D2A0AD2376BD21F02EB82025D
:1009600093409F430B6893401F43376309E0F76A46
:100970000D3A02EB820293409F430B6893401F4362
:10098000F7620A68072306680A2A0AD3F7680A3A50
:1009900002EB420293409F438B6893401F43F760F2
:1009A00008E0376902EB420293409F438B68934013
:1009B0001F4337610A68102A01D0112A20D1124B37
:1009C00002689A4217D193681B0219D4936843F4C2
:1009D000000393600968102912D10C490C4A096878
:1009E000B1FBF2F101EB8101490000E0491E0091E9
:1009F0000029FBD104E0816A41F0200181620124D9
:100A000080F824502046F8BD00240140200000203A
:100A100040420F000068C06C704700002DE9F041B3
:100A20004FF0000704003D467ED0A06A002628B99A
:100A3000E66284F82460204600F07EF82046FFF746
:100A40007DFEA16AC90600D420B1A06A40F0100062
:100A5000A06269E0A16A21F4885141F00201A1621B
:100A60006268E169237B0A4347EA43010A43A168BC
:100A70004FF48077B94209D0012907D05FF0000117
:100A800094F814C0BCF1010F02D00AE03946F7E730
:100A9000F3B1A36A43F02003A362E36A43F00103C6
:100AA000E3622368D3F804C02CF4694C4CEA010CCF
:100AB000C3F804C021688B68DFF870C003EA0C0338
:100AC00013438B60A168B9420BD0012909D00CE017
:100AD000DFF85CC0A3690CEB43330B4343F40061C4
:100AE000DFE7218A0D05A5F580152168CB6A23F47F
:100AF00070032B43CB62216889680E4B19409142E9
:100B000008D1E662A16A21F0020141F00101A1626F
:100B1000BDE8F081A06A20F0020040F01000A06261
:100B2000E06A40F00100E0620120F1E7FDF7E1FF3B
:100B300000E0FFFFFE0E1FFF00B585B00021009111
:100B400001910291039100680E49884218D10E4824
:100B5000816941F400718161816901F4007104913E
:100B6000816941F0040181618069694600F00400F7
:100B700004900120009003200190044800F078F9CF
:100B800005B000BD002401400010024000080140F3
:100B90002DE9F84300260D460446009600F062FA5F
:100BA000804620688168C90508D5A06A40F0200009
:100BB000A06284F824600120BDE8F8834168C9057B
:100BC00003D4C06A10F4700F26D0022000F0E8FAB7
:100BD00038490968B1FBF0F72068036936490B42D0
:100BE0004FEA61014FEAA1121BD1C3684FEA611CB1
:100BF00013EA0C0F15D103690B4221D1C0681042D2
:100C00001ED114201FE0681C06D045B300F02AFA5C
:100C1000A0EB0800A84222D8206800688007F2D51F
:100C20002AE003690B4202D1C168114206D0026971
:100C300022490A4206D1C068084203D1542002E08A
:100C4000292000E0FC204743009813E0681C0ED0E8
:100C50002DB100F007FAA0EB0800A84207D9A06A5E
:100C600040F00400A06284F824600320A4E7009808
:100C7000401C0090B842E9D321686FF01200086070
:100C8000A06A40F40070A06220688068C0F342400F
:100C900007280CD1207B50B9A06A20F48070A06294
:100CA000A06AC00403D4A06A40F00100A062002042
:100CB00082E7000020000020244992244992240069
:100CC00070B5044690F8240001280DD0012084F866
:100CD00024002046FFF758FD02004FF0000005D029
:100CE00084F82400104670BD022070BDA16A40F255
:100CF0000123994341F48071A1621F4D23681F496C
:100D0000AB4218D10E6816F4702F14D0A66A46F4C0
:100D10008016A6620E68760505D5A66A26F40056EA
:100D200046F48056A662A66AF6040AD5E66A26F05C
:100D30000606E66206E0A66A26F48016A6625E68EB
:100D4000E9E7E06284F824006FF002001860206890
:100D50008368C3F34243072B05D1A84208D1096831
:100D600011F4702F04D0816841F480118160B9E7DB
:100D7000816841F4A001F9E7002801400424014002
:100D800010B5044690F82400012807D0012084F80B
:100D900024002046FFF7D2FC10B107E0022010BD6E
:100DA000A16A21F4885141F00101A162002184F877
:100DB000241010BD10B590F821100024022903D092
:100DC0000421816301243DE001680A6822F00E02DB
:100DD0000A6001680A6822F001020A601A4A016882
:100DE000914201D1012121E0174A1432914201D1EF
:100DF00010211BE0144A2832914201D1891515E0D7
:100E0000114A3C32914201D189140FE00E4A50320E
:100E1000914202D14FF4803108E00B4A6432914292
:100E200002D14FF4801101E04FF08071064A083A78
:100E30005160012180F82110002180F82010416BC1
:100E400001B18847204610BD0800024070B5044635
:100E500000F008F90546601C02D0044800780444FC
:100E600000F000F9401BA042FAD370BD140000202E
:100E70002DE9F84FDFF8B891002409F1040A0AF1CE
:100E8000040B23460F270BF1040EC9E00125A540F2
:100E90002A40AA427DD1674ED1F804C0ACEB0608C7
:100EA000B44532D014DCBCF1030F3AD009DCBCF1FC
:100EB000000F2AD0BCF1010F1CD0BCF1020F31D1C0
:100EC0001DE0BCF1110F17D0BCF1120F2AD119E0AF
:100ED000B8F5881F19D006DCB8F5803F15D0B8F5F5
:100EE000801F1FD111E0B8F5001F0ED0B8F5041F08
:100EF00018D10AE0CB6815E0CB681B1D12E0CB6867
:100F000008330FE0CB680C330CE08B682BB1012B5E
:100F10004FF0080303D0456104E0042302E00561BB
:100F200000E00023FF2A01D8064601E000F1040694
:100F30004FEA840501D9A5F12005D6F8008007FA0B
:100F400005FC28EA0C0803FA05F548EA0508C6F886
:100F500000804D68ED0062D5374DAE6946F0010660
:100F6000AE61AD6924F0030605F001050095334D2F
:100F700006EB050CDCF80850A607360F07FA06F852
:100F800025EA0805DFF8B880404503D14FF0000896
:100F900017E044E0DFF8AC80404502D14FF0010893
:100FA0000FE0DFF8A480404502D14FF0020808E0CE
:100FB000DFF89880404502D14FF0030801E04FF080
:100FC000040808FA06F848EA0508CCF808804D68D5
:100FD000D9F80060ED034D4601D5164300E0964375
:100FE0002E604D68DAF80060AD03554601D5164312
:100FF00000E096432E604D68DBF80060ED025D4630
:1010000001D5164300E096432E604D68DEF800607F
:10101000AD02754601D5164300E096432E60641C70
:101020000D682A46E5407FF431AFBDE8F88F000037
:1010300000040140000011100010024000000140B7
:1010400000080140000C0140001001400014014064
:101050008068084000D0012070470AB101617047E4
:101060000904FBE701488068704700001400002075
:1010700002488168027811448160704714000020A2
:10108000074810B5016841F010010160032000F02D
:1010900075F8002000F006F800F024F8002010BDDC
:1010A0000020024070B50D4D04464FF47A71287847
:1010B000B1FBF0F00A490968B1FBF0F000F0C6FBA3
:1010C00048B9102C07D200222146501E00F036F8F5
:1010D00000206C6070BD012070BD00001400002075
:1010E000200000200C4808B5816941F001018161B0
:1010F000816901F001010091C16941F08051C16134
:10110000C06900F0805000900448416821F0E0611F
:1011100041F00071416008BD001002400000014034
:10112000002809DB00F01F020121914040098000E6
:1011300000F1E020C0F8001170470000F0B40E4B41
:101140001B680C46C3F30223C3F10705042D00D925
:101150000425191D072901D2002300E0DB1E01260A
:1011600006FA05F1491E214099409E40761E164020
:101170003143F0BC01F07CBA0CED00E0064900F010
:10118000070208684FF6FF03184040EA0220034AAE
:1011900010430860704700000CED00E00000FA0505
:1011A00010B529A401461DCC86B08DE81D002AA0EB
:1011B0002A4C006804900020012923D002293AD04B
:1011C00010291DD161682268D20119D5C1F383426B
:1011D000C9031DF8020009D5616804AAC1F34041A2
:1011E000515C1F4AB2FBF1F1484301E01D494843FD
:1011F0006168490204D440005FF00301B0FBF1F0E4
:1012000006B010BD226AC2F30121012903D1920761
:1012100001D5C803F4E7022905D1626A920702D515
:1012200049F64040ECE70329EAD121688903E7D574
:101230004FF22440E4E700F033F96168C1F38131F3
:10124000491C4900DAE70000020304050607080903
:101250000A0B0C0D0E0F10100102000000100240CE
:1012600000127A0000093D002DE9F8430546007898
:10127000354CC00754D0E0690026C00008D4E069AE
:1012800040F08050E061E069012600F0805000905D
:101290002E480168C90512D40168804641F4807166
:1012A0000160FFF7DFFE074605E000BFFFF7DAFE4B
:1012B000C01B642823D8D8F80000C005F6D5206AE2
:1012C00010F4407021D0A98801F4407181421CD0F3
:1012D000206A1F49012220F440700A6000220A603F
:1012E0002062C00711D0FFF7BDFE074641F28838E3
:1012F00008E000BFFFF7B6FEC11B414502D903203D
:10130000BDE8F883206A8007F4D5206A696820F474
:101310004070084320621EB1E06920F08050E06117
:101320002878800705D56068A96820F44040084304
:1013300060602878C00605D56068E96820F4800000
:10134000084360600020DBE70010024000700040AE
:10135000400442422DE9F0470F46050061D0434E5C
:10136000306800F00700B84209D2306820F007006A
:1013700038433060306800F00700B84251D1286827
:101380003B4C810712D5400703D5606840F4E0600C
:1013900060602878000703D5606840F460506060A2
:1013A0006068A96820F0F000084360602878C007F2
:1013B00028D06868012810D02168022810D0890739
:1013C00000292EDA616821F0030101436160FFF713
:1013D00049FE804641F288390DE021688903EFE734
:1013E0008901EDE7FFF73EFEA0EB0801494502D970
:1013F0000320BDE8F0876068696800F00C00B0EB7E
:10140000810FEFD1306800F00700B8420BD9306887
:1014100020F0070038433060306800F00700B84221
:1014200001D00120E5E72878400705D56068E96824
:1014300020F4E060084360602878000706D5606803
:10144000296920F4605040EAC100606000F038F87B
:101450006168084AC1F30311515CC840064908603D
:1014600006480068FFF71EFE0020C2E70020024089
:10147000001002409C3000082000002018000020CE
:101480000448054900684968044AC1F30221515CD7
:10149000C84070472000002000100240AC30000817
:1014A0000448054900684968044AC1F3C221515CF7
:1014B000C84070472000002000100240AC300008F7
:1014C00012A185B00FC98DE80F0014A0144A00685E
:1014D00004905168134801F00C03042B10D0082B22
:1014E0000ED1C1F38343C9031DF803000AD5516827
:1014F00004AAC1F34041515C0A4A5043B0FBF1F0E9
:1015000005B0704708494843FAE7000002030405A4
:10151000060708090A0B0C0D0E0F1010010200003F
:101520000010024000127A0000093D002DE9F84F3A
:10153000040070D02078C04DC00749D06868C0F35F
:101540008100012807D06868C0F38100022809D112
:101550006868C00306D52868800339D5606800280C
:10156000E7D035E06068B0F5803F0BD010B1B0F542
:10157000A02F11D0286820F480302860286820F43B
:10158000802002E0286840F480302860606890B1D4
:10159000FFF768FD06460AE0286840F480202860CE
:1015A000F0E700BFFFF75EFD801B642873D8286852
:1015B0008003F7D50CE0FFF755FD064605E000BFB8
:1015C000FFF750FD801B6428F0D828688003F7D40B
:1015D00020789A4E80074FF001094FF0000839D566
:1015E000686810F00C0F07D06868C0F3810002280B
:1015F00009D16868C00306D42868800714D520691B
:10160000012808D110E02069B0B1C6F80090FFF7BA
:1016100029FD074605E00AE1FFF724FDC01B02286B
:10162000C4D828688007F7D52868616920F0F800D9
:1016300040EAC10028600DE0C6F80080FFF712FD07
:10164000074604E0FFF70EFDC01B022823D82868D8
:101650008007F7D4207800072CD57948A169D9B143
:10166000C0F80090FFF7FEFC074604E0FFF7FAFC25
:10167000C01B02280FD8686A8007F7D571484FF45D
:10168000FA510068B0FBF1F0009000BF0098411ED5
:101690000091FAD20EE080E0C0F80080FFF7E2FC93
:1016A000074604E0FFF7DEFCC01B022875D8686A15
:1016B0008007F7D42078400760D5E8690027C0008C
:1016C00008D4E86940F08050E861E869012700F03B
:1016D000805000905C480168C90513D401688346B6
:1016E00041F480710160FFF7BDFC824606E000BF57
:1016F000FFF7B8FCA0EB0A0064284ED8DBF8000026
:10170000C005F5D5E06801280AD008B1052813D036
:10171000286A20F001002862286A20F0040002E014
:10172000286A40F001002862E06841F2883B98B1E5
:10173000FFF798FC82460BE0286A40F0040028621C
:10174000EEE700BFFFF78EFCA0EB0A0159455AD81F
:10175000286A8007F6D50CE0FFF784FC824605E096
:10176000FFF780FCA0EB0A0159454CD8286A800796
:10177000F6D41FB1E86920F08050E861E06988B3D1
:101780006968C1F38101022944D00228C6F860804B
:1017900004D0FFF767FC044638E034E0FFF762FC52
:1017A000074604E0FFF75EFCC01B02282BD8286820
:1017B0008001F7D4206AB0F5803F05D16868A16840
:1017C00020F4003008436860D4E9080108436968E0
:1017D00021F4741108436860C6F86090FFF742FC7A
:1017E000044606E025E000BFFFF73CFC001B022892
:1017F00009D828688001F7D51BE000BFFFF732FC4D
:10180000001B022802D90320BDE8F88F2868800158
:10181000F4D40EE00128F7D06868226A00F4803121
:10182000914204D1616A00F47010884201D0012015
:10183000EAE70020E8E70000001002400000424212
:1018400080044242200000200070004010B5401E7D
:10185000B0F1807F01D3012010BD4FF0E024606122
:101860000F21601700F004FF0020A0610720206115
:10187000002010BD70B590F83C20012A19D0012439
:1018800000F83C4F0222427050F83C3C5A689D6878
:1018900022F070060A684968324325F08005294322
:1018A0005A6050F83C2C9160447000210170084649
:1018B00070BD022070BD10B5040003D094F83D0047
:1018C00010B107E0012010BD002084F83C00204644
:1018D00000F00CF8022084F83D00211D206800F083
:1018E0006DFC012084F83D00002010BD08B50C4AB5
:1018F00001680C48914207D1816941F4006181611E
:10190000806900F4006009E0B1F1804F07D1C1693E
:1019100041F00101C161C06900F00100009008BD03
:10192000002C014000100240022180F83D100168A7
:101930008A6802F00702062A03D00A6842F0010210
:101940000A60012180F83D100020704770B5044600
:1019500090F83C00012817D0012584F83C50022063
:1019600084F83D002068826822F0770222F47F42EA
:1019700082600868502830D00DDC20284DD005DC6E
:1019800098B310283BD148E0022070BD302844D0E5
:10199000402834D139E0602828D0702806D0B0F52E
:1019A000805F2CD0B0F5005F29D10AE0CB68D1E987
:1019B0000121206800F045FC2068816841F0770132
:1019C00009E0CB68D1E90121206800F03AFC2068E9
:1019D000816841F48041816011E0CA6849682068EB
:1019E00000F0E4FC5021206807E016E0CA6849686E
:1019F000206800F0ECFC6021206800F02CFC84F8EA
:101A00003D50002084F83C0070BDCA6849682068D9
:101A100000F0CCFC40212068EFE722680146104628
:101A2000EBE7000000B585B0002100910191029123
:101A300003910068B0F1804F1BD10F48816941F0DC
:101A4000040181618069694600F0040004904FF44C
:101A5000004000900220019003900848FFF708FA28
:101A60000748416821F4407141F0E06141F4807120
:101A7000416005B000BD00000010024000080140B8
:101A80000000014070B5044690F83C000D46012866
:101A90000DD0012684F83C60022084F83D0042B15C
:101AA000042A18D0082A2AD00C2A4DD139E0022065
:101AB00070BD206800F0D8FB2068816941F0080102
:101AC00081612068816921F0040181612068816958
:101AD0002A69114311E0206800F0EEFB206881695B
:101AE00041F4006181612068816921F48061816134
:101AF000206881692A6941EA0221816124E0206825
:101B000000F006FC2068C16941F00801C16120684D
:101B1000C16921F00401C1612068C1692A691143CA
:101B200011E0206800F020FC2068C16941F40061E8
:101B3000C1612068C16921F48061C1612068C16907
:101B40002A6941EA0221C16184F83D60002084F8DD
:101B50003C0070BD10B5040003D094F83D0010B1F6
:101B600007E0012010BD002084F83C00204600F072
:101B70000CF8022084F83D00211D206800F01EFBB7
:101B8000012084F83D00002010BD704710B50446C8
:101B90000068012200F048FB09492068884203D10F
:101BA000416C41F4004141642068816801F0070103
:101BB000062903D0016841F001010160002010BD39
:101BC000002C01407047000070B5026804461068A0
:101BD000D168536910F00F0F50D003F0010501F4E4
:101BE000907635435DD0C20705D0CA0503D5E26BB8
:101BF00042F00102E263420705D5DA0703D0E26B47
:101C000042F00202E263820705D5DA0703D0E26BF5
:101C100042F00402E263020705D5DA0703D0E26B63
:101C200042F00802E263E26B002A33D0800604D55A
:101C3000880602D5204600F0F2FB20684069E16B7F
:101C4000C0F38010090700D428B3204600F0D9FB68
:101C50002068416949061AD5416921F04001416176
:101C6000606BA0B11B494163606BFFF7A3F80028CC
:101C700010D0606B416BBDE870400847830610D5FB
:101C80008B060ED52046BDE8704000F0C8BB20464C
:101C9000FFF798FF70BD2046FFF794FF0020E06338
:101CA00070BD030606D50B0604D52046BDE870407E
:101CB00000F05CBC4006F3D54806F1D5D16820465B
:101CC00021F04001D160202184F8391000F000F9A2
:101CD00070BD0000F323000870B5040004D094F830
:101CE0003900002510B106E0012070BD84F838509D
:101CF000204600F023F8242084F839002068C168C9
:101D000021F40051C160204600F0D4FB2068016935
:101D100021F4904101612068416921F02A0141616B
:101D20002068C16841F40051C160E563202084F857
:101D3000390084F83A00002070BD000070B586B00C
:101D4000002400940194029403942E4E03682E49BB
:101D5000022003222D4DB34226D18B6943F48043E8
:101D60008B618B6903F4804304938B6943F0040314
:101D70008B618969039201F0040104910102CDE9AC
:101D8000001069462846FFF773F82815CDE90004CE
:101D9000694628460294FFF76BF800221146252079
:101DA000FFF7CCF9252028E0194EB34227D1CB69A3
:101DB00043F40033CB61CB6903F4003304938B69A4
:101DC00043F004038B618969039201F004010491DB
:101DD0000421CDE9001069462846FFF749F808209C
:101DE000CDE90004694628460294FFF741F8002235
:101DF00011462620FFF7A2F92620FFF791F906B039
:101E000070BD000000380140001002400008014091
:101E10000044004070472DE9F843044690F839002B
:101E20001F4616460D46202850D1A5B19EB194F804
:101E3000380001284AD0012084F838004FF000080B
:101E4000C4F83C80212084F83900FFF70BF9A68400
:101E50008146E68426E00120BDE8F883E08C401E40
:101E6000E084A0684B46B0F5805F4FF000024FF071
:101E700080012046009703D000F0A9FBE8B90DE0EF
:101E800000F0A5FBC8B928882168C0F308004860A5
:101E9000206908B16D1C05E0AD1C03E0216815F850
:101EA000010B4860E08C0028D8D14B46002240212D
:101EB0002046009700F08BFB08B10320CCE72020E0
:101EC00084F8390084F838800020C5E70220C3E791
:101ED0007047FEE73EB500240D480094019402943B
:101EE0000A498460016001250573047505614FF49A
:101EF00060214460C161FEF791FDCDE9004569466E
:101F000003480294FEF708FD3EBD00000024014096
:101F1000280000202DE9F04186B0002420480094DC
:101F2000019402940394816941F0100181618169F7
:101F300001F010010491816941F020018161816902
:101F400001F020010491816941F0040181618069FF
:101F5000144F00F004004FF400550490002229466D
:101F60003846FFF77AF8DFF8408000220221404629
:101F7000FFF773F80126CDE9005602256946384679
:101F8000CDE90245FEF774FFCDE9005669464046AB
:101F9000CDE90245FEF76CFF06B0BDE8F081000018
:101FA00000100240001001400008014010B586B04A
:101FB00000241248009401940294039404940E495E
:101FC000059401604721C0E901144FF6FE71C0E994
:101FD000031444618461FFF76EFC4FF4805000905D
:101FE00069460648FFF7B2FC049404A90348059427
:101FF000FFF740FC06B010BD002C01405800002047
:1020000010B58EB000240794089409940A940B9498
:102010001C2168460C94FEF79CF817484FF080414D
:10202000016040F29F51C0E9011440F2E731C0E97C
:10203000031480218161FFF73EFC4FF4805007902C
:1020400007A90D48FFF782FC0B48FFF783FD0B94AF
:102050000BA909480C94FFF70DFC6020CDE90004A2
:1020600002940022694604480494FFF70BFD0248DD
:10207000FFF7D8FC0EB010BD98000020FEE77047B7
:102080007047000010B5FEF7E7FB164C20700120EA
:10209000FEF7DCFECC20FEF705FC4420FEF702FC38
:1020A0004FF44870FEF7D2FEFEF7D6FB20700120F9
:1020B000FEF7CCFECC20FEF7F5FBBE20FEF7F2FBD0
:1020C000FEF79CFB6070FEF799FBA070617841EA17
:1020D0000020A080FEF754F86FF00301FEF744F8EB
:1020E000A06010BD0000002010B50C48FEF7E8FD10
:1020F00064210A48FEF74CFD0848FEF78BFC084CAB
:1021000080B26421E0804843000BFEF739F8E060BC
:10211000BDE810400148FEF733BE00002800002053
:102120000000002070471FB50022CDE900120121F8
:10213000CDE902126946FEF79BFE1FBD1FB50022C6
:1021400000910121CDE90112022103916946FEF7B8
:102150008FFE1FBDFEF78CBF30B593B028216846B7
:10216000FDF7F7FF14210AA8FDF7F3FF0024012073
:102170000F9410941194010412948DE813000490AC
:102180004FF4E010CDE90810022507956846FFF7E7
:10219000CDF90F20CDE90A056802CDE90C400221F6
:1021A0000AA80E94FFF7D6F8A80311900F950FA870
:1021B000FFF75AF813B030BD70470000F0B5026861
:1021C000164B174C174D4FF08047984205D0B84238
:1021D00003D0A04201D0A84203D122F070064A6881
:1021E0003243984205D0B84203D0A04201D0A84261
:1021F00003D122F44074CA6822434C6922F0800261
:10220000224302608A68C2620A688262984201D1EF
:102210000969016301214161F0BD0000002C01400A
:10222000000400400008004010B501F01F03012128
:10223000046A99408C430462016A9A401143016226
:1022400010BD10B5846842EA032224F47F440A4397
:102250002243826010BD826822F070020A4342F07D
:10226000070181607047000030B5026A22F0010268
:102270000262026A4368846924F073050C682C4387
:1022800022F002058A682A430A4DA8420BD122F0A7
:102290000805CA6823F440732A434D6922F00402FA
:1022A0001D438B692B43436084614968416302622B
:1022B00030BD0000002C014030B5026A22F010024F
:1022C0000262026A436884690D6824F4E64444EAC1
:1022D00005248D6822F0200242EA05120B4DA84227
:1022E0000ED1CD6822F0800242EA05124D6923F436
:1022F000406343EA85038D6922F0400243EA850387
:102300004360846149688163026230BD002C0140F2
:1023100030B5026A22F480720262036A4268C469BC
:1023200023F4007324F073050C682C438D6843EA92
:1023300005230C4DA8420ED1CD6823F4006343EA77
:1023400005234D6922F4405242EA05128D6923F4B7
:10235000806342EA05124260C4614968C163036256
:1023600030BD0000002C014030B5026A22F48052DA
:102370000262046A4268C3690D6823F4E64343EAD3
:1023800005238D6824F4005444EA0534064DA84220
:1023900004D14D6922F4804242EA85124260C36151
:1023A00049680164046230BD002C014010B5036A25
:1023B000046A24F001040462846924F0F00444EA0D
:1023C000021423F00A020A438461026210BD10B5B0
:1023D000036A23F0100303628369046A23F47043E1
:1023E00043EA023224F0A00343EA01118261016250
:1023F00010BD10B5406A0021C185C184FFF7E2FB22
:1024000010BD0168CA6822F49072CA6001684A6906
:1024100022F001024A61202180F83A10704710B57D
:1024200090F83A10222901D0022010BD8168B1F540
:10243000805F11D00169002901681FD0496801F04F
:102440007F03816A4A1C82620B70C18D491E090498
:10245000090CC18518D02BE00269816A002A026844
:10246000526805D0D2B20A80816A491C8162ECE7C9
:10247000C2F308020A80816A891CF7E74A68816A08
:102480004B1C83620A70E0E70168CA6822F02002F0
:10249000CA600168CA6822F48072CA6001684A6929
:1024A00022F001024A61202180F83A10FFF7B2FCC5
:1024B000002010BD2DE9F041044600680169E26882
:1024C00021F44051114301612169A0680843616909
:1024D00008432168CA6841F20C639A430243CA6008
:1024E00020684169A26921F44071114341611E498C
:1024F000206864253226884202D1FEF7D1FF01E030
:10250000FEF7BEFF00EBC00101EB001160686FF049
:1025100018078000B1FBF0F2B2FBF5F2B1FBF0F36B
:102520007A4303EB8202B1FBF0F306EB0212B2FB3B
:10253000F5F2B3FBF5F302F0F00202EB0312B1FB8C
:10254000F0F3B1FBF0F0B0FBF5F0784303EB800063
:1025500006EB0010B0FBF5F0216800F00F0010440E
:102560008860BDE8F08100000038014090F8391023
:10257000212901D0022070478168B1F5805F016A8E
:102580000BD04A1C0262026809785160C18C491E56
:102590000904090CC1840ED017E009880268C1F350
:1025A0000801516001690029016A02D0491C0162D9
:1025B000ECE7891CFBE70168CA6822F08002CA6068
:1025C0000068C16841F04001C160002070472DE9FA
:1025D000F041984617460E460446069D1DE0681CCD
:1025E0001BD02DB1FEF73EFDA0EB0800A84214D988
:1025F0002068C16821F4D071C1602068416921F070
:1026000001014161202084F8390084F83A0000205B
:1026100084F838000320BDE8F0812068006836EABD
:10262000000004D00020B842D9D00020F3E70120F8
:10263000F9E700000148FFF7C7BA0000D800002002
:102640000148FFF7C1BA000018010020FEE70000B2
:102650000FB4054B10B503A9044A029800F0EAF83C
:1026600010BC5DF814FB00007D2F00082400002042
:102670000907090E002804DB00F1E02080F80014AF
:10268000704700F00F0000F1E02080F8141D704743
:1026900002E008C8121F08C1002AFAD1704770472B
:1026A000002001E001C1121F002AFBD17047000089
:1026B0002DE9FF5F82B00021DDE90430020DDDF875
:1026C00040B0034318D044F61050A2F2FF32424308
:1026D0001514119801281FD0A5EB0B00401C5FEAD0
:1026E000000A4FF000064E4FDFF83891B0465046D2
:1026F00015D5CAF1000413E0119801244AA301285A
:1027000001D16FEA0B010298119AC0E90031C0E9CA
:10271000024206B0BDE8F09FCBF10000DFE70446BF
:102720000021404A491842EB0450CDE9001012E064
:10273000E00707D032463B4640464946FDF75DFE7E
:102740008046894632463B4610461946FDF755FEFF
:1027500006460F466410002CEAD1DDE90401DDE9EC
:102760000023BAF1000F06DAFDF747FE42464B465A
:10277000FDF743FE05E0FDF7B2FE42464B46FDF78E
:10278000AEFE04460E460022284BFDF72FFF03D86D
:102790004FF0FF30014607E00022254B204631462E
:1027A000FDF784FDFDF70AFF102409E0002C0ADB89
:1027B0000A220023FDF712FD039B30321A55641ED6
:1027C00050EA0102F2D1641C039AC4F111031444CB
:1027D000119A012A03D0012208430DD10AE00843CF
:1027E00004D000204FF0110B119072E7A3EB0B0502
:1027F0006D1E0DE05B4504DD4FF0000205F10105A3
:1028000004E003DA4FF00002A5F10105002AECD044
:1028100002981199C0E90231C0E9004579E700004A
:10282000000014400000F03F300000000000F043C2
:102830000000E03F2DE9FF4F95B09B4689460646D4
:1028400000250FE2252877D100242746F84A0121E8
:10285000059400E0044316F8013F203B01FA03F021
:102860001042F7D130782A2811D06FF02F0330783A
:10287000A0F13002092A16D8059A44F0020402EBAE
:10288000820203EB42021044761C0590EFE759F8F0
:10289000042B0592002A03DA504244F400540590B8
:1028A00044F00204761C30782E2816D116F8010F59
:1028B00044F004042A280DD06FF02F023078A0F1E4
:1028C0003003092B09D807EB870302EB4303C71832
:1028D000761CF3E759F8047B761C30786C280FD00F
:1028E00006DC4C2817D068280DD06A2814D104E0E3
:1028F000742810D07A280FD10DE044F400140AE0B7
:1029000044F4801401E044F440147278824202D10D
:1029100004F58014761C761C307866280BD013DC06
:10292000582877D009DC002875D04528F6D04628ED
:10293000F4D047281AD19DE118E0632835D06428E7
:1029400079D0652812D195E1702873D008DC67280A
:10295000F1D069286FD06E280DD06F2806D1B5E070
:1029600073282CD0752875D0782874D05A461799BA
:1029700090476D1C75E1C4F30250022809D003286A
:102980000DD0D9F8001004280DD00D6009F104090C
:1029900067E1D9F80010EA17C1E90052F6E7D9F863
:1029A00000100D80F2E70D70F0E719F8041B8DF8A8
:1029B000001000208DF80100EA46012003E059F8DC
:1029C00004AB4FF0FF3061074FF0000102D40DE07F
:1029D00008F101018846B9420FDA8045F8DB1AF8A0
:1029E00008100029F4D108E008F10101884681426D
:1029F000FADB1AF808100029F6D105985B46A0EB1F
:102A0000080721463846179A00F094FA284400EB4C
:102A1000080507E04DE029E10DE01AF8010B5A46E0
:102A200017999047B8F10108F7D25B46214638461E
:102A3000179A13E142E00A220092C4F302524FF0C7
:102A4000000A022A08D059F804CB032A4FEAEC7195
:102A50000AD00DE029E02AE009F1070121F0070280
:102A6000F2E802C1914609E00FFA8CFC4FEAEC71E2
:102A7000042A03D14FFA8CFC4FEAEC71002907DAE3
:102A80000A460021DCF1000C61EB02012D2202E07C
:102A9000220504D52B228DF80420012203E0E20751
:102AA00001D02022F7E7904659E00A2102E01022E7
:102AB0000DE010214FF0000A00910BE010224FF0C2
:102AC000000A44F004040827009203E008224FF0B3
:102AD000000A0092C4F30252022A05D059F804CB2E
:102AE0000021032A08D009E009F1070121F00702BB
:102AF000F2E802C1914605E01FFA8CFC042A01D1DC
:102B00000CF0FF0C4FF00008220728D5702806D0E3
:102B1000009B83F0100353EA0A0305D00EE0402225
:102B20008DF80420012208E05CEA010206D0302280
:102B30008DF804208DF8050002229046009B83F05A
:102B4000080353EA0A030AD15CEA010201D16207D1
:102B500005D530228DF804204FF001087F1E58283B
:102B600004D034A003900EA802900DE036A0F9E73F
:102B700053466046009AFDF731FB84460398825C19
:102B80000298401E029002705CEA0100F0D10298A7
:102B900006A9081A00F1200A600702D524F480343F
:102BA00000E00127574502DDA7EB0A0000E0002006
:102BB00000EB0A01009005984144401A0590E0039B
:102BC00006D45B462146179A059800F0B3F90544F0
:102BD000002706E001A85A46C05D179990476D1C72
:102BE0007F1C4745F6DBE0030CD55B462146179A70
:102BF000059800F09FF9054404E030205A461799E3
:102C000090476D1C0099481E00900029F5DC08E0F3
:102C1000029802995A460078491C029117999047E8
:102C20006D1CBAF10001AAF1010AF1DC65E10000B6
:102C30000928010030313233343536373839616292
:102C40006364656600000000303132333435363756
:102C500038394142434445460000000000F058F92D
:102C60000544761C307800287FF4ECAD19B0284676
:102C7000BDE8F08F620700D4062709F1070222F0B1
:102C8000070CFCE80223E14603F000485FEA080C69
:102C900002D00FF2702C0DE05FEA045C02D50FF257
:102CA000682C07E05FEAC47C02D00FF2602C01E0E0
:102CB000AFF2700C4FF0FF3823F00043CDF850C056
:102CC00065280CD006DC452809D046281DD04728A9
:102CD0003DD13DE0662818D067287ED138E000213C
:102CE000112F01DB112000E0781CCDE9000106A9BD
:102CF0000EA8FFF7DDFCDDE90F010E9A039100211C
:102D0000009207F1010A04914DE04FF00040009756
:102D1000CDE9011006A90EA8FFF7CAFCDDE90F02F4
:102D200003920E9B11990022DDF80CA000930492EF
:102D300011B9791C00EB010AB7EB0A0004D4C0F109
:102D4000FF3007F1010A0490AAEB0700019044E06C
:102D5000012F00DA01270021112F01DD112000E0F1
:102D60003846CDE9000106A90EA8FFF7A1FCDDE970
:102D70000F010E9A0391002104910092BA46210797
:102D80000CD40399514500DA8A46BAF1010F05DDEA
:102D9000009AAAF10101515C302908D0B84202DA48
:102DA00010F1040F06DA0121CDE9011015E0AAF1B6
:102DB0000101E9E7002805DC049901440491AAEB2C
:102DC000000102E0411C514500DD8A460499401A89
:102DD000401C01904FF000400290200704D401985D
:102DE000504501DBCDF8048000208DF84F0002989B
:102DF0000DF14F07B0F1004F25D02B200E90029817
:102E00004FF0020800280CDA404202902D200E906C
:102E100007E00A210298FDF7CBF93031029007F85C
:102E2000011DB8F10001A8F10108F2DC02980028A8
:102E3000EFD1791E0E980870307800F0200040F035
:102E4000450007F8020D12A8C01B00F107081498EE
:102E5000007800B1012000EB0A01019801EBE0715C
:102E600005984144401A401E0590E00306D45B4695
:102E70002146179A059800F05DF8054414980078EB
:102E800018B15A46179990476D1CE00324D55B464C
:102E90002146179A059800F04DF805441CE0049867
:102EA000002807DBDDE90301884203DD0098405C70
:102EB000179901E0179930205A469047049805F178
:102EC0000105401C04900198401E019004D12E2061
:102ED0005A46179990476D1CBAF10001AAF1010AF0
:102EE000DDDC05E017F8010B5A46179990476D1C79
:102EF000B8F10001A8F10108F4DC5B462146179AFD
:102F00000598ABE62D0000002B000000200000001B
:102F10002DE9F041044600251E461746880404D4D6
:102F200005E039462020B0476D1C641EF9D52846BF
:102F3000BDE8F0812DE9F041044600251E4690468B
:102F4000C80301D5302700E02027880404D505E018
:102F500041463846B0476D1C641EF9D52846BDE889
:102F6000F0810000044900220B685A6209684A6A2D
:102F70008242FCD3704700005800002013B54FF682
:102F8000FF73012269460248FEF745FF00981CBD09
:102F900018010020FEF774F8FFF7DEF8FEF7BAFF1D
:102FA000FFF704F82C482B494FF416550024016014
:102FB000C0E901540C26C460C0E904468461C461C0
:102FC000FEF78AFE2448254940300160C0E90154DB
:102FD000C460C0E904468461C461FEF77DFEFEF76B
:102FE00079FFFFF70DF81C488038FEF79DFC1A4862
:102FF00000214038FEF7CAFD194C4FF0804500BF54
:10300000FFF740F8FFF770F8A068FDF7BEF802463A
:103010000B4614A0FFF71CFBE068FDF7B6F802466C
:103020000B4617A0FFF714FB05E06863801C2061C6
:103030002820FDF70BFF20694B28F6DB05E06863CD
:10304000801E20612820FDF701FF20690028D7DDC0
:10305000F5E7000000380140D8000020004400409F
:10306000000000200D0A2074656D70657261747532
:1030700072652069733A20252E3266200000000018
:103080000D0A20576174657220436C61726974790E
:103090002069733A20252E326620000000000000CF
:1030A00000000000010203040607080900000000F8
:1030B00001020304D43000080000002028000000B2
:1030C00090260008FC300008280000203005000091
:1030D000A026000800000000000000000000000022
:1030E00000000000000000000100000010000000CF
:0C30F000000000000024F40000000000BC
:04000005080000ED02
:00000001FF
